{
  "_format": "hh-sol-artifact-1",
  "contractName": "Transaction",
  "sourceName": "contracts/Transaction.sol",
  "address": "0x81208BB2Da33B91260E6CAfD9d2E6C3A4AF06ce8",
  "abi": [
    {
      "inputs": [],
      "name": "getListedTransactions",
      "outputs": [
        {
          "components": [
            {
              "internalType": "string",
              "name": "buyer",
              "type": "string"
            },
            {
              "internalType": "string",
              "name": "seller",
              "type": "string"
            },
            {
              "internalType": "string",
              "name": "product",
              "type": "string"
            },
            {
              "internalType": "uint256",
              "name": "quantity",
              "type": "uint256"
            },
            {
              "internalType": "uint256",
              "name": "price",
              "type": "uint256"
            },
            {
              "internalType": "string",
              "name": "offer",
              "type": "string"
            }
          ],
          "internalType": "struct Transaction.Transactions[]",
          "name": "",
          "type": "tuple[]"
        }
      ],
      "stateMutability": "view",
      "type": "function"
    },
    {
      "inputs": [
        {
          "internalType": "string",
          "name": "_buyer",
          "type": "string"
        },
        {
          "internalType": "string",
          "name": "_seller",
          "type": "string"
        },
        {
          "internalType": "string",
          "name": "_product",
          "type": "string"
        },
        {
          "internalType": "uint256",
          "name": "_quantity",
          "type": "uint256"
        },
        {
          "internalType": "uint256",
          "name": "_price",
          "type": "uint256"
        },
        {
          "internalType": "string",
          "name": "_offer",
          "type": "string"
        }
      ],
      "name": "listTransactions",
      "outputs": [],
      "stateMutability": "nonpayable",
      "type": "function"
    }
  ],
  "bytecode": "0x608060405234801561001057600080fd5b50610fdf806100206000396000f3fe608060405234801561001057600080fd5b50600436106100365760003560e01c806387940f751461003b578063f76b3e5814610057575b600080fd5b61005560048036038101906100509190610725565b610075565b005b61005f6102da565b60405161006c9190610a10565b60405180910390f35b60008651116100b9576040517f08c379a00000000000000000000000000000000000000000000000000000000081526004016100b090610a8f565b60405180910390fd5b60008551116100fd576040517f08c379a00000000000000000000000000000000000000000000000000000000081526004016100f490610afb565b60405180910390fd5b6000845111610141576040517f08c379a000000000000000000000000000000000000000000000000000000000815260040161013890610b67565b60405180910390fd5b60008311610184576040517f08c379a000000000000000000000000000000000000000000000000000000000815260040161017b90610bd3565b60405180910390fd5b60008210156101c8576040517f08c379a00000000000000000000000000000000000000000000000000000000081526004016101bf90610c3f565b60405180910390fd5b600081511161020c576040517f08c379a000000000000000000000000000000000000000000000000000000000815260040161020390610cab565b60405180910390fd5b60006040518060c0016040528088815260200187815260200186815260200185815260200184815260200183815250908060018154018082558091505060019003906000526020600020906006020160009091909190915060008201518160000190816102799190610ed7565b50602082015181600101908161028f9190610ed7565b5060408201518160020190816102a59190610ed7565b50606082015181600301556080820151816004015560a08201518160050190816102cf9190610ed7565b505050505050505050565b60606000805480602002602001604051908101604052809291908181526020016000905b8282101561058c57838290600052602060002090600602016040518060c001604052908160008201805461033190610cfa565b80601f016020809104026020016040519081016040528092919081815260200182805461035d90610cfa565b80156103aa5780601f1061037f576101008083540402835291602001916103aa565b820191906000526020600020905b81548152906001019060200180831161038d57829003601f168201915b505050505081526020016001820180546103c390610cfa565b80601f01602080910402602001604051908101604052809291908181526020018280546103ef90610cfa565b801561043c5780601f106104115761010080835404028352916020019161043c565b820191906000526020600020905b81548152906001019060200180831161041f57829003601f168201915b5050505050815260200160028201805461045590610cfa565b80601f016020809104026020016040519081016040528092919081815260200182805461048190610cfa565b80156104ce5780601f106104a3576101008083540402835291602001916104ce565b820191906000526020600020905b8154815290600101906020018083116104b157829003601f168201915b5050505050815260200160038201548152602001600482015481526020016005820180546104fb90610cfa565b80601f016020809104026020016040519081016040528092919081815260200182805461052790610cfa565b80156105745780601f1061054957610100808354040283529160200191610574565b820191906000526020600020905b81548152906001019060200180831161055757829003601f168201915b505050505081525050815260200190600101906102fe565b50505050905090565b6000604051905090565b600080fd5b600080fd5b600080fd5b600080fd5b6000601f19601f8301169050919050565b7f4e487b7100000000000000000000000000000000000000000000000000000000600052604160045260246000fd5b6105fc826105b3565b810181811067ffffffffffffffff8211171561061b5761061a6105c4565b5b80604052505050565b600061062e610595565b905061063a82826105f3565b919050565b600067ffffffffffffffff82111561065a576106596105c4565b5b610663826105b3565b9050602081019050919050565b82818337600083830152505050565b600061069261068d8461063f565b610624565b9050828152602081018484840111156106ae576106ad6105ae565b5b6106b9848285610670565b509392505050565b600082601f8301126106d6576106d56105a9565b5b81356106e684826020860161067f565b91505092915050565b6000819050919050565b610702816106ef565b811461070d57600080fd5b50565b60008135905061071f816106f9565b92915050565b60008060008060008060c087890312156107425761074161059f565b5b600087013567ffffffffffffffff8111156107605761075f6105a4565b5b61076c89828a016106c1565b965050602087013567ffffffffffffffff81111561078d5761078c6105a4565b5b61079989828a016106c1565b955050604087013567ffffffffffffffff8111156107ba576107b96105a4565b5b6107c689828a016106c1565b94505060606107d789828a01610710565b93505060806107e889828a01610710565b92505060a087013567ffffffffffffffff811115610809576108086105a4565b5b61081589828a016106c1565b9150509295509295509295565b600081519050919050565b600082825260208201905092915050565b6000819050602082019050919050565b600081519050919050565b600082825260208201905092915050565b60005b8381101561088857808201518184015260208101905061086d565b60008484015250505050565b600061089f8261084e565b6108a98185610859565b93506108b981856020860161086a565b6108c2816105b3565b840191505092915050565b6108d6816106ef565b82525050565b600060c08301600083015184820360008601526108f98282610894565b915050602083015184820360208601526109138282610894565b9150506040830151848203604086015261092d8282610894565b915050606083015161094260608601826108cd565b50608083015161095560808601826108cd565b5060a083015184820360a086015261096d8282610894565b9150508091505092915050565b600061098683836108dc565b905092915050565b6000602082019050919050565b60006109a682610822565b6109b0818561082d565b9350836020820285016109c28561083e565b8060005b858110156109fe57848403895281516109df858261097a565b94506109ea8361098e565b925060208a019950506001810190506109c6565b50829750879550505050505092915050565b60006020820190508181036000830152610a2a818461099b565b905092915050565b600082825260208201905092915050565b7f506c6561736520656e7465722042757965724964000000000000000000000000600082015250565b6000610a79601483610a32565b9150610a8482610a43565b602082019050919050565b60006020820190508181036000830152610aa881610a6c565b9050919050565b7f506c6561736520656e7465722053656c6c657249640000000000000000000000600082015250565b6000610ae5601583610a32565b9150610af082610aaf565b602082019050919050565b60006020820190508181036000830152610b1481610ad8565b9050919050565b7f506c6561736520656e7465722050726f64756374496400000000000000000000600082015250565b6000610b51601683610a32565b9150610b5c82610b1b565b602082019050919050565b60006020820190508181036000830152610b8081610b44565b9050919050565b7f5175616e74697479206d7573742062652041746c656173742031000000000000600082015250565b6000610bbd601a83610a32565b9150610bc882610b87565b602082019050919050565b60006020820190508181036000830152610bec81610bb0565b9050919050565b7f50726963652043616e6e6f74206265206e656761746976650000000000000000600082015250565b6000610c29601883610a32565b9150610c3482610bf3565b602082019050919050565b60006020820190508181036000830152610c5881610c1c565b9050919050565b7f506c6561736520656e746572206f666665720000000000000000000000000000600082015250565b6000610c95601283610a32565b9150610ca082610c5f565b602082019050919050565b60006020820190508181036000830152610cc481610c88565b9050919050565b7f4e487b7100000000000000000000000000000000000000000000000000000000600052602260045260246000fd5b60006002820490506001821680610d1257607f821691505b602082108103610d2557610d24610ccb565b5b50919050565b60008190508160005260206000209050919050565b60006020601f8301049050919050565b600082821b905092915050565b600060088302610d8d7fffffffffffffffffffffffffffffffffffffffffffffffffffffffffffffffff82610d50565b610d978683610d50565b95508019841693508086168417925050509392505050565b6000819050919050565b6000610dd4610dcf610dca846106ef565b610daf565b6106ef565b9050919050565b6000819050919050565b610dee83610db9565b610e02610dfa82610ddb565b848454610d5d565b825550505050565b600090565b610e17610e0a565b610e22818484610de5565b505050565b5b81811015610e4657610e3b600082610e0f565b600181019050610e28565b5050565b601f821115610e8b57610e5c81610d2b565b610e6584610d40565b81016020851015610e74578190505b610e88610e8085610d40565b830182610e27565b50505b505050565b600082821c905092915050565b6000610eae60001984600802610e90565b1980831691505092915050565b6000610ec78383610e9d565b9150826002028217905092915050565b610ee08261084e565b67ffffffffffffffff811115610ef957610ef86105c4565b5b610f038254610cfa565b610f0e828285610e4a565b600060209050601f831160018114610f415760008415610f2f578287015190505b610f398582610ebb565b865550610fa1565b601f198416610f4f86610d2b565b60005b82811015610f7757848901518255600182019150602085019450602081019050610f52565b86831015610f945784890151610f90601f891682610e9d565b8355505b6001600288020188555050505b50505050505056fea2646970667358221220125049ee8dba6c63d833967a7a0342f60d0a046040671d61d0d306f37fe0c3a464736f6c63430008120033",
  "linkReferences": {},
  "deployedLinkReferences": {}
}